{
  "_format": "hh-sol-artifact-1",
  "contractName": "VestingFactory",
  "sourceName": "contracts/VestingFactory.sol",
  "abi": [
    {
      "inputs": [],
      "stateMutability": "nonpayable",
      "type": "constructor"
    },
    {
      "anonymous": false,
      "inputs": [
        {
          "indexed": true,
          "internalType": "address",
          "name": "_owner",
          "type": "address"
        },
        {
          "indexed": false,
          "internalType": "address",
          "name": "_contract",
          "type": "address"
        },
        {
          "indexed": false,
          "internalType": "uint256",
          "name": "",
          "type": "uint256"
        }
      ],
      "name": "VestorCreated",
      "type": "event"
    },
    {
      "inputs": [
        {
          "internalType": "address",
          "name": "user",
          "type": "address"
        }
      ],
      "name": "addUser",
      "outputs": [
        {
          "internalType": "bool",
          "name": "",
          "type": "bool"
        }
      ],
      "stateMutability": "nonpayable",
      "type": "function"
    },
    {
      "inputs": [
        {
          "internalType": "uint256",
          "name": "",
          "type": "uint256"
        }
      ],
      "name": "allVestors",
      "outputs": [
        {
          "internalType": "address",
          "name": "",
          "type": "address"
        }
      ],
      "stateMutability": "view",
      "type": "function"
    },
    {
      "inputs": [
        {
          "internalType": "address",
          "name": "_token",
          "type": "address"
        },
        {
          "internalType": "address",
          "name": "_host",
          "type": "address"
        },
        {
          "internalType": "address",
          "name": "_cfa",
          "type": "address"
        }
      ],
      "name": "createVestor",
      "outputs": [
        {
          "internalType": "address",
          "name": "",
          "type": "address"
        }
      ],
      "stateMutability": "nonpayable",
      "type": "function"
    },
    {
      "inputs": [],
      "name": "getAllVestors",
      "outputs": [
        {
          "internalType": "address[]",
          "name": "",
          "type": "address[]"
        }
      ],
      "stateMutability": "view",
      "type": "function"
    },
    {
      "inputs": [
        {
          "internalType": "address",
          "name": "user",
          "type": "address"
        }
      ],
      "name": "getVestorsForUser",
      "outputs": [
        {
          "internalType": "address[]",
          "name": "",
          "type": "address[]"
        }
      ],
      "stateMutability": "view",
      "type": "function"
    }
  ],
  "bytecode": "0x60a060405234801561001057600080fd5b5060405161001d90610063565b604051809103906000f080158015610039573d6000803e3d6000fd5b5060601b6001600160601b03191660805260008054336001600160a01b0319909116179055610070565b615e3f806106a483390190565b60805160601c61061661008e600039600061021b01526106166000f3fe608060405234801561001057600080fd5b50600436106100675760003560e01c8063421b2d8b11610050578063421b2d8b1461009d578063776eca7e146100bd578063fbff8f7d146100dd57610067565b80630109aac51461006c5780631aaffaa81461008a575b600080fd5b6100746100f0565b6040516100819190610551565b60405180910390f35b61007461009836600461047e565b610152565b6100b06100ab36600461047e565b6101c9565b604051610081919061059e565b6100d06100cb36600461049f565b610213565b60405161008191906104f9565b6100d06100eb3660046104e1565b610394565b6060600180548060200260200160405190810160405280929190818152602001828054801561014857602002820191906000526020600020905b81546001600160a01b0316815260019091019060200180831161012a575b5050505050905090565b6001600160a01b0381166000908152600260209081526040918290208054835181840281018401909452808452606093928301828280156101bc57602002820191906000526020600020905b81546001600160a01b0316815260019091019060200180831161019e575b505050505090505b919050565b6001600160a01b0316600090815260026020908152604082208054600180820183559184529190922001805473ffffffffffffffffffffffffffffffffffffffff19163317905590565b60008061023f7f00000000000000000000000000000000000000000000000000000000000000006103be565b6040517ff8c8765e0000000000000000000000000000000000000000000000000000000081529091506001600160a01b0382169063f8c8765e9061028d90889033908990899060040161050d565b600060405180830381600087803b1580156102a757600080fd5b505af11580156102bb573d6000803e3d6000fd5b50506001805480820182557fb10e2d527612073b26eecdfd717e6a320cf44b4afac2b0732d9fcbe2b7fa0cf60180546001600160a01b03861673ffffffffffffffffffffffffffffffffffffffff199182168117909255336000818152600260209081526040808320805480890182559084528284200180548616871790559482526003905283902080549092168117909155915490519193507f417fac54f1fb7fcf1f6b6b6b609407ab87bac384b3922b21d2c74e677029224d925061038491859190610538565b60405180910390a2949350505050565b600181815481106103a457600080fd5b6000918252602090912001546001600160a01b0316905081565b60006040517f3d602d80600a3d3981f3363d3d373d3d3d363d7300000000000000000000000081528260601b60148201527f5af43d82803e903d91602b57fd5bf3000000000000000000000000000000000060288201526037816000f09150506001600160a01b0381166101c4576040517f08c379a000000000000000000000000000000000000000000000000000000000815260040161045e906105a9565b60405180910390fd5b80356001600160a01b03811681146101c457600080fd5b60006020828403121561048f578081fd5b61049882610467565b9392505050565b6000806000606084860312156104b3578182fd5b6104bc84610467565b92506104ca60208501610467565b91506104d860408501610467565b90509250925092565b6000602082840312156104f2578081fd5b5035919050565b6001600160a01b0391909116815260200190565b6001600160a01b03948516815292841660208401529083166040830152909116606082015260800190565b6001600160a01b03929092168252602082015260400190565b6020808252825182820181905260009190848201906040850190845b818110156105925783516001600160a01b03168352928401929184019160010161056d565b50909695505050505050565b901515815260200190565b60208082526016908201527f455243313136373a20637265617465206661696c65640000000000000000000060408201526060019056fea264697066735822122073b1e02078bd271d388d2a124202993c8fe5c0c1db7b8a1321bae94793ae89cd64736f6c63430008000033608060405234801561001057600080fd5b50615e1e80620000216000396000f3fe608060405234801561001057600080fd5b50600436106102e95760003560e01c80638b451b3411610191578063cb2b6b50116100e3578063ebc917af11610097578063f3fef3a311610071578063f3fef3a3146105ce578063f8c8765e146105e1578063fc5ff13f146105f4576102e9565b8063ebc917af146105a0578063ee01c5a8146105b3578063f2cb56ed146105c6576102e9565b8063d3112b2e116100c8578063d3112b2e14610562578063d547741f14610578578063e6b4b9c71461058b576102e9565b8063cb2b6b501461053c578063d1fa1abc1461054f576102e9565b80639516a10411610145578063b169b3521161011f578063b169b3521461050e578063b410993a14610521578063ca15c87314610529576102e9565b80639516a104146104de578063a217fddf146104f3578063abc0af36146104fb576102e9565b80638f55386e116101765780638f55386e146104b05780639010d07c146104b857806391d14854146104cb576102e9565b80638b451b341461048a5780638b9d46031461049d576102e9565b80634636d23e1161024a5780635f2af2bd116101fe5780636f85ca1d116101d85780636f85ca1d146104675780637b7159bf1461046f5780637c83ece814610477576102e9565b80635f2af2bd1461042b57806369ee89b1146104335780636c1f017f14610446576102e9565b806353f69d791161022f57806353f69d79146103f057806355a1cf6a146103f85780635df22f1f14610418576102e9565b80634636d23e146103ca57806347e7ef24146103dd576102e9565b8063248a9ca3116102a15780632fb1632e116102865780632fb1632e1461038257806336568abe146103a2578063451c3d80146103b5576102e9565b8063248a9ca31461035c5780632f2ff15d1461036f576102e9565b80631a7da8ce116102d25780631a7da8ce1461032c5780631b2df850146103415780631cdedb3514610349576102e9565b806301ffc9a7146102ee5780630900f01014610317575b600080fd5b6103016102fc366004615316565b610607565b60405161030e919061571d565b60405180910390f35b61032a610325366004614f93565b61064b565b005b6103346107f2565b60405161030e919061574b565b610334610816565b6103346103573660046150b7565b610828565b61033461036a3660046152ae565b6108e9565b61032a61037d3660046152c6565b6108fe565b61039561039036600461504a565b6109bc565b60405161030e9190615bfe565b61032a6103b03660046152c6565b610af0565b6103bd610b12565b60405161030e91906155d7565b61032a6103d836600461500a565b610b21565b61032a6103eb3660046150b7565b6111d5565b61033461129b565b61040b6104063660046150e2565b6112bf565b60405161030e91906156da565b61032a610426366004614f93565b6114e1565b6103346116f0565b61032a610441366004615116565b6116f6565b610459610454366004614f93565b61179b565b60405161030e929190615728565b6103346119e4565b610334611a6a565b61032a610485366004615156565b611a8e565b61032a610498366004614f93565b611c90565b61032a6104ab3660046150b7565b611d41565b6103bd611f06565b6103bd6104c63660046152f5565b611f15565b6103016104d93660046152c6565b611f34565b6104e6611f5f565b60405161030e919061568d565b610334612006565b61040b610509366004614f93565b61200b565b61033461051c366004614f93565b61213d565b61032a612158565b6103346105373660046152ae565b612163565b6104e661054a3660046152f5565b61217a565b61032a61055d3660046150b7565b6122de565b61056a6123ef565b60405161030e9291906157b4565b61032a6105863660046152c6565b612405565b61059361240f565b60405161030e919061585a565b61032a6105ae366004615156565b6124b2565b61032a6105c1366004615116565b6126a5565b610459612987565b61032a6105dc3660046150b7565b612bbc565b61032a6105ef366004614faf565b612d3e565b61032a6106023660046150e2565b613000565b60006001600160e01b031982167f5a05180f0000000000000000000000000000000000000000000000000000000014806106455750610645826130ca565b92915050565b6040516370a0823160e01b81526000906001600160a01b038316906370a082319061067a9030906004016155d7565b60206040518083038186803b15801561069257600080fd5b505afa1580156106a6573d6000803e3d6000fd5b505050506040513d601f19601f820116820180604052508101906106ca9190615435565b905080156107ee5760cd546040517f095ea7b30000000000000000000000000000000000000000000000000000000081526001600160a01b038481169263095ea7b39261071f9290911690859060040161560f565b602060405180830381600087803b15801561073957600080fd5b505af115801561074d573d6000803e3d6000fd5b505050506040513d601f19601f820116820180604052508101906107719190615292565b5060cd546040517f45977d030000000000000000000000000000000000000000000000000000000081526001600160a01b03909116906345977d03906107bb90849060040161574b565b600060405180830381600087803b1580156107d557600080fd5b505af11580156107e9573d6000803e3d6000fd5b505050505b5050565b7f57c4566ed7387d881f62d2e3640ff20a2ddf869c0781ad50ca764bc2c0b8809881565b600080516020615dc983398151915281565b6001600160a01b038216600090815260cf6020526040812080548291908490811061086357634e487b7160e01b600052603260045260246000fd5b90600052602060002090600702016004015411156108e0576001600160a01b038316600090815260cf6020526040902080546108d99190849081106108b857634e487b7160e01b600052603260045260246000fd5b9060005260206000209060070201600401544261310890919063ffffffff16565b9050610645565b50600092915050565b60009081526065602052604090206001015490565b60006109118161090c613114565b613118565b60d4546040517f421b2d8b0000000000000000000000000000000000000000000000000000000081526001600160a01b039091169063421b2d8b9061095a9085906004016155d7565b602060405180830381600087803b15801561097457600080fd5b505af1158015610988573d6000803e3d6000fd5b505050506040513d601f19601f820116820180604052508101906109ac9190615292565b506109b7838361317c565b505050565b6109c4614efb565b6109dc600080516020615dc983398151915233611f34565b806109ed57506109ed600033611f34565b80610a1d5750610a1d7fd10feaa7fea55567e367a112bc53907318a50949442dfc0570945570c5af57cf33611f34565b610a425760405162461bcd60e51b8152600401610a39906159c3565b60405180910390fd5b600087600b0b13610a655760405162461bcd60e51b8152600401610a39906158e7565b60006040518061012001604052808a6001600160a01b0316815260200189600b0b8152602001881515815260200160006002811115610ab457634e487b7160e01b600052602160045260246000fd5b815260200187815260200186815260200160008152602001858152602001848152509050610ae381600161319e565b9998505050505050505050565b610afa828261368f565b60008281526097602052604090206109b790826136d1565b60cd546001600160a01b031681565b610b39600080516020615dc983398151915233611f34565b80610b4a5750610b4a600033611f34565b610b665760405162461bcd60e51b8152600401610a3990615955565b6001600160a01b038316600090815260cf6020908152604080832080548251818502810185019093528083529192909190849084015b82821015610c8b57600084815260209081902060408051610120810182526007860290920180546001600160a01b0381168452600160a01b9004600b90810b810b900b93830193909352600183015460ff8082161515928401929092529192916060840191610100909104166002811115610c2757634e487b7160e01b600052602160045260246000fd5b6002811115610c4657634e487b7160e01b600052602160045260246000fd5b81526020016002820154815260200160038201548152602001600482015481526020016005820154815260200160068201548152505081526020019060010190610b9c565b5050505090506000815111156111cf576000805b825181101561110d57831580610ce05750828181518110610cd057634e487b7160e01b600052603260045260246000fd5b6020026020010151610100015184145b156110fb576002838281518110610d0757634e487b7160e01b600052603260045260246000fd5b6020026020010151606001516002811115610d3257634e487b7160e01b600052602160045260246000fd5b146110fb576000604051806101200160405280876001600160a01b03168152602001858481518110610d7457634e487b7160e01b600052603260045260246000fd5b602002602001015160200151600b0b815260200160001515815260200160006002811115610db257634e487b7160e01b600052602160045260246000fd5b8152602001858481518110610dd757634e487b7160e01b600052603260045260246000fd5b6020026020010151608001518152602001858481518110610e0857634e487b7160e01b600052603260045260246000fd5b602002602001015160a00151815260200160008152602001858481518110610e4057634e487b7160e01b600052603260045260246000fd5b602002602001015160e001518152602001858481518110610e7157634e487b7160e01b600052603260045260246000fd5b60209081029190910101516101000151905290506001848381518110610ea757634e487b7160e01b600052603260045260246000fd5b6020026020010151606001516002811115610ed257634e487b7160e01b600052602160045260246000fd5b1415611001576001600160a01b038716600090815260cf6020526040902080546002919084908110610f1457634e487b7160e01b600052603260045260246000fd5b60009182526020909120600160079092020101805461ff001916610100836002811115610f5157634e487b7160e01b600052602160045260246000fd5b0217905550610f6087836136e6565b838281518110610f8057634e487b7160e01b600052603260045260246000fd5b60200260200101516020015183610f979190615c0d565b9250610fa4426001615c65565b6080820152600060e0820152610ff7610fbd8884610828565b858481518110610fdd57634e487b7160e01b600052603260045260246000fd5b602002602001015160a0015161310890919063ffffffff16565b60a08201526110ed565b600084838151811061102357634e487b7160e01b600052603260045260246000fd5b602002602001015160600151600281111561104e57634e487b7160e01b600052602160045260246000fd5b14156110e7576001600160a01b038716600090815260cf602052604090208054600291908490811061109057634e487b7160e01b600052603260045260246000fd5b60009182526020909120600160079092020101805461ff0019166101008360028111156110cd57634e487b7160e01b600052602160045260246000fd5b02179055506110dd426001615c65565b60808201526110ed565b506110fb565b6110f881600061319e565b50505b8061110581615d4f565b915050610c9f565b5060ca5460cd54604051631cd43d1160e31b81526000926001600160a01b039081169263e6a1e8889261114a929091169030908b906004016157ce565b60806040518083038186803b15801561116257600080fd5b505afa158015611176573d6000803e3d6000fd5b505050506040513d601f19601f8201168201806040525081019061119a919061544d565b505060cd549092506111c6915087906001600160a01b03166111bc8585615c9c565b60cb9291906139e4565b6107e985613ab1565b50505050565b6040517f23b872dd0000000000000000000000000000000000000000000000000000000081526000906001600160a01b038416906323b872dd90611221903390309087906004016155eb565b602060405180830381600087803b15801561123b57600080fd5b505af115801561124f573d6000803e3d6000fd5b505050506040513d601f19601f820116820180604052508101906112739190615292565b9050806112925760405162461bcd60e51b8152600401610a3990615ac5565b6109b78361064b565b7fd10feaa7fea55567e367a112bc53907318a50949442dfc0570945570c5af57cf81565b6001600160a01b038316600090815260cf60205260409020546060906112e6908490615cf5565b821115611314576001600160a01b038416600090815260cf6020526040902054611311908490615cf5565b91505b8167ffffffffffffffff81111561133b57634e487b7160e01b600052604160045260246000fd5b60405190808252806020026020018201604052801561137457816020015b611361614efb565b8152602001906001900390816113595790505b50905060005b828110156114d9576001600160a01b038516600090815260cf602052604090206113a48286615c65565b815481106113c257634e487b7160e01b600052603260045260246000fd5b60009182526020918290206040805161012081018252600790930290910180546001600160a01b0381168452600160a01b9004600b90810b810b900b93830193909352600183015460ff808216151592840192909252919291606084019161010090910416600281111561144657634e487b7160e01b600052602160045260246000fd5b600281111561146557634e487b7160e01b600052602160045260246000fd5b8152602001600282015481526020016003820154815260200160048201548152602001600582015481526020016006820154815250508282815181106114bb57634e487b7160e01b600052603260045260246000fd5b602002602001018190525080806114d190615d4f565b91505061137a565b509392505050565b6001600160a01b038116600090815260cf6020908152604080832080548251818502810185019093528083529192909190849084015b8282101561160657600084815260209081902060408051610120810182526007860290920180546001600160a01b0381168452600160a01b9004600b90810b810b900b93830193909352600183015460ff80821615159284019290925291929160608401916101009091041660028111156115a257634e487b7160e01b600052602160045260246000fd5b60028111156115c157634e487b7160e01b600052602160045260246000fd5b81526020016002820154815260200160038201548152602001600482015481526020016005820154815260200160068201548152505081526020019060010190611517565b50505050905060005b81518110156116c357600182828151811061163a57634e487b7160e01b600052603260045260246000fd5b602002602001015160600151600281111561166557634e487b7160e01b600052602160045260246000fd5b14156116b15781818151811061168b57634e487b7160e01b600052603260045260246000fd5b602002602001015160a001516116a18483610828565b11156116b1576116b183826141bc565b806116bb81615d4f565b91505061160f565b506116cc6143d6565b60d180546001600160a01b0319166001600160a01b03929092169190911790555050565b60d25481565b61170e600080516020615dc983398151915233611f34565b8061171f575061171f600033611f34565b61173b5760405162461bcd60e51b8152600401610a3990615955565b60005b818110156109b757600083838381811061176857634e487b7160e01b600052603260045260246000fd5b905060200201602081019061177d9190614f93565b905061178881613ab1565b508061179381615d4f565b91505061173e565b6001600160a01b038116600090815260cf6020908152604080832080548251818502810185019093528083526060938593929190849084015b828210156118c357600084815260209081902060408051610120810182526007860290920180546001600160a01b0381168452600160a01b9004600b90810b810b900b93830193909352600183015460ff808216151592840192909252919291606084019161010090910416600281111561185f57634e487b7160e01b600052602160045260246000fd5b600281111561187e57634e487b7160e01b600052602160045260246000fd5b815260200160028201548152602001600382015481526020016004820154815260200160058201548152602001600682015481525050815260200190600101906117d4565b50505050905060005b81518110156119dd5760008282815181106118f757634e487b7160e01b600052603260045260246000fd5b602002602001015160600151600281111561192257634e487b7160e01b600052602160045260246000fd5b14156119cb5781818151811061194857634e487b7160e01b600052603260045260246000fd5b6020026020010151608001514211156119cb57604051600194507f8b451b3400000000000000000000000000000000000000000000000000000000906119929087906024016155d7565b60408051601f198184030181529190526020810180516001600160e01b03166001600160e01b03199093169290921790915292506119dd565b806119d581615d4f565b9150506118cc565b5050915091565b60cd546040516370a0823160e01b81526000916001600160a01b0316906370a0823190611a159030906004016155d7565b60206040518083038186803b158015611a2d57600080fd5b505afa158015611a41573d6000803e3d6000fd5b505050506040513d601f19601f82011682018060405250810190611a659190615435565b905090565b7fb9da96f64f247aab47739337442191dcd3a6c543aae2cb944a94c62b69a4066b81565b611aa6600080516020615dc983398151915233611f34565b80611ab75750611ab7600033611f34565b80611ae75750611ae77fd10feaa7fea55567e367a112bc53907318a50949442dfc0570945570c5af57cf33611f34565b611b035760405162461bcd60e51b8152600401610a39906159c3565b60005b8b811015611c815760006040518061012001604052808f8f85818110611b3c57634e487b7160e01b600052603260045260246000fd5b9050602002016020810190611b519190614f93565b6001600160a01b031681526020018d8d85818110611b7f57634e487b7160e01b600052603260045260246000fd5b9050602002016020810190611b9491906153fd565b600b0b815260006020820181905260408201526060018b8b85818110611bca57634e487b7160e01b600052603260045260246000fd5b905060200201358152602001898985818110611bf657634e487b7160e01b600052603260045260246000fd5b90506020020135815260200160008152602001878785818110611c2957634e487b7160e01b600052603260045260246000fd5b905060200201358152602001858585818110611c5557634e487b7160e01b600052603260045260246000fd5b905060200201358152509050611c6c81600161319e565b50508080611c7990615d4f565b915050611b06565b50505050505050505050505050565b611ca8600080516020615dc983398151915233611f34565b80611cb95750611cb9600033611f34565b80611ce95750611ce97fd10feaa7fea55567e367a112bc53907318a50949442dfc0570945570c5af57cf33611f34565b80611d195750611d197fb9da96f64f247aab47739337442191dcd3a6c543aae2cb944a94c62b69a4066b33611f34565b611d355760405162461bcd60e51b8152600401610a3990615b6a565b611d3e81613ab1565b50565b611d59600080516020615dc983398151915233611f34565b80611d6a5750611d6a600033611f34565b80611d9a5750611d9a7fd10feaa7fea55567e367a112bc53907318a50949442dfc0570945570c5af57cf33611f34565b80611dca5750611dca7f57c4566ed7387d881f62d2e3640ff20a2ddf869c0781ad50ca764bc2c0b8809833611f34565b611de65760405162461bcd60e51b8152600401610a3990615b33565b60016001600160a01b038316600090815260cf60205260409020805483908110611e2057634e487b7160e01b600052603260045260246000fd5b906000526020600020906007020160010160019054906101000a900460ff166002811115611e5e57634e487b7160e01b600052602160045260246000fd5b14611e7b5760405162461bcd60e51b8152600401610a399061591e565b6001600160a01b038216600090815260cf60205260409020805482908110611eb357634e487b7160e01b600052603260045260246000fd5b906000526020600020906007020160030154611ecf8383610828565b1015611efc57611edf82826145a4565b15611efc5760405162461bcd60e51b8152600401610a39906158b0565b6107ee82826141bc565b60d1546001600160a01b031681565b6000828152609760205260408120611f2d9083614623565b9392505050565b60009182526065602090815260408084206001600160a01b0393909316845291905290205460ff1690565b6060611f79600080516020615dc983398151915233611f34565b80611f8a5750611f8a600033611f34565b611fa65760405162461bcd60e51b8152600401610a3990615955565b60ce805480602002602001604051908101604052809291908181526020018280548015611ffc57602002820191906000526020600020905b81546001600160a01b03168152600190910190602001808311611fde575b5050505050905090565b600081565b6001600160a01b038116600090815260cf60209081526040808320805482518185028101850190935280835260609492939192909184015b8282101561213257600084815260209081902060408051610120810182526007860290920180546001600160a01b0381168452600160a01b9004600b90810b810b900b93830193909352600183015460ff80821615159284019290925291929160608401916101009091041660028111156120ce57634e487b7160e01b600052602160045260246000fd5b60028111156120ed57634e487b7160e01b600052602160045260246000fd5b81526020016002820154815260200160038201548152602001600482015481526020016005820154815260200160068201548152505081526020019060010190612043565b505050509050919050565b6001600160a01b0316600090815260cf602052604090205490565b61216133613ab1565b565b60008181526097602052604081206106459061462f565b6060612194600080516020615dc983398151915233611f34565b806121a557506121a5600033611f34565b6121c15760405162461bcd60e51b8152600401610a3990615955565b60ce546121cf908490615cf5565b8211156121e75760ce546121e4908490615cf5565b91505b8167ffffffffffffffff81111561220e57634e487b7160e01b600052604160045260246000fd5b604051908082528060200260200182016040528015612237578160200160208202803683370190505b50905060005b828110156122d75760ce6122518286615c65565b8154811061226f57634e487b7160e01b600052603260045260246000fd5b9060005260206000200160009054906101000a90046001600160a01b03168282815181106122ad57634e487b7160e01b600052603260045260246000fd5b6001600160a01b0390921660209283029190910190910152806122cf81615d4f565b91505061223d565b5092915050565b6122f6600080516020615dc983398151915233611f34565b806123075750612307600033611f34565b8061233757506123377fd10feaa7fea55567e367a112bc53907318a50949442dfc0570945570c5af57cf33611f34565b8061236757506123677f57c4566ed7387d881f62d2e3640ff20a2ddf869c0781ad50ca764bc2c0b8809833611f34565b6123835760405162461bcd60e51b8152600401610a3990615b33565b6001600160a01b0382166123a95760405162461bcd60e51b8152600401610a39906159fa565b60d25481116123ca5760405162461bcd60e51b8152600401610a399061598c565b60d25560d180546001600160a01b0319166001600160a01b0392909216919091179055565b60cb5460cc546001600160a01b03918216911682565b610afa828261463a565b60ca5460cd546040517fe8e7e2d10000000000000000000000000000000000000000000000000000000081526000926001600160a01b039081169263e8e7e2d192612462929091169030906004016157b4565b60206040518083038186803b15801561247a57600080fd5b505afa15801561248e573d6000803e3d6000fd5b505050506040513d601f19601f82011682018060405250810190611a659190615419565b6124ca600080516020615dc983398151915233611f34565b806124db57506124db600033611f34565b8061250b575061250b7fd10feaa7fea55567e367a112bc53907318a50949442dfc0570945570c5af57cf33611f34565b6125275760405162461bcd60e51b8152600401610a39906159c3565b60005b8b811015611c815760006040518061012001604052808f8f8581811061256057634e487b7160e01b600052603260045260246000fd5b90506020020160208101906125759190614f93565b6001600160a01b031681526020018d8d858181106125a357634e487b7160e01b600052603260045260246000fd5b90506020020160208101906125b891906153fd565b600b0b815260016020820152604001600081526020018b8b858181106125ee57634e487b7160e01b600052603260045260246000fd5b90506020020135815260200189898581811061261a57634e487b7160e01b600052603260045260246000fd5b9050602002013581526020016000815260200187878581811061264d57634e487b7160e01b600052603260045260246000fd5b90506020020135815260200185858581811061267957634e487b7160e01b600052603260045260246000fd5b90506020020135815250905061269081600161319e565b5050808061269d90615d4f565b91505061252a565b6126bd600080516020615dc983398151915233611f34565b806126ce57506126ce600033611f34565b806126fe57506126fe7fd10feaa7fea55567e367a112bc53907318a50949442dfc0570945570c5af57cf33611f34565b8061272e575061272e7f57c4566ed7387d881f62d2e3640ff20a2ddf869c0781ad50ca764bc2c0b8809833611f34565b61274a5760405162461bcd60e51b8152600401610a3990615b33565b60005b818110156109b757600083838381811061277757634e487b7160e01b600052603260045260246000fd5b905060200201602081019061278c9190614f93565b6001600160a01b038116600090815260cf6020908152604080832080548251818502810185019093528083529495509293909291849084015b828210156128b457600084815260209081902060408051610120810182526007860290920180546001600160a01b0381168452600160a01b9004600b90810b810b900b93830193909352600183015460ff808216151592840192909252919291606084019161010090910416600281111561285057634e487b7160e01b600052602160045260246000fd5b600281111561286f57634e487b7160e01b600052602160045260246000fd5b815260200160028201548152602001600382015481526020016004820154815260200160058201548152602001600682015481525050815260200190600101906127c5565b50505050905060005b81518110156129715760018282815181106128e857634e487b7160e01b600052603260045260246000fd5b602002602001015160600151600281111561291357634e487b7160e01b600052602160045260246000fd5b141561295f5781818151811061293957634e487b7160e01b600052603260045260246000fd5b602002602001015160a0015161294f8483610828565b111561295f5761295f8382611d41565b8061296981615d4f565b9150506128bd565b505050808061297f90615d4f565b91505061274d565b60d1546000906060906001600160a01b03166129a65760009150612bb8565b60d1546001600160a01b0316600090815260cf6020908152604080832080548251818502810185019093528083529192909190849084015b82821015612acd57600084815260209081902060408051610120810182526007860290920180546001600160a01b0381168452600160a01b9004600b90810b810b900b93830193909352600183015460ff8082161515928401929092529192916060840191610100909104166002811115612a6957634e487b7160e01b600052602160045260246000fd5b6002811115612a8857634e487b7160e01b600052602160045260246000fd5b815260200160028201548152602001600382015481526020016004820154815260200160058201548152602001600682015481525050815260200190600101906129de565b50505050905060005b8151811015612bb557818181518110612aff57634e487b7160e01b600052603260045260246000fd5b602090810291909101015160a0015160d154612b24906001600160a01b031683610828565b1115612ba35760d154604051600195507f5df22f1f0000000000000000000000000000000000000000000000000000000091612b6e916001600160a01b03909116906024016155d7565b60408051601f198184030181529190526020810180516001600160e01b03166001600160e01b03199093169290921790915292505b80612bad81615d4f565b915050612ad6565b50505b9091565b612bd4600080516020615dc983398151915233611f34565b80612be55750612be5600033611f34565b612c015760405162461bcd60e51b8152600401610a3990615955565b6040516370a0823160e01b81526001600160a01b038316906370a0823190612c2d9030906004016155d7565b60206040518083038186803b158015612c4557600080fd5b505afa158015612c59573d6000803e3d6000fd5b505050506040513d601f19601f82011682018060405250810190612c7d9190615435565b811115612c9c5760405162461bcd60e51b8152600401610a3990615afc565b60405163a9059cbb60e01b81526000906001600160a01b0384169063a9059cbb90612ccd903390869060040161560f565b602060405180830381600087803b158015612ce757600080fd5b505af1158015612cfb573d6000803e3d6000fd5b505050506040513d601f19601f82011682018060405250810190612d1f9190615292565b9050806109b75760405162461bcd60e51b8152600401610a3990615ac5565b600054610100900460ff1680612d57575060005460ff16155b612d735760405162461bcd60e51b8152600401610a3990615a31565b600054610100900460ff16158015612d9e576000805460ff1961ff0019909116610100171660011790555b6001600160a01b038516612dc45760405162461bcd60e51b8152600401610a39906159fa565b612dcc614659565b612dd4614659565b60c980546001600160a01b038086166001600160a01b0319928316179283905560ca80548683169316929092179091556040805180820182529290911680835290517fb6d200de00000000000000000000000000000000000000000000000000000000815260208301919063b6d200de90612e73907fa9214cc96615e0085d3bb077758db69497dc2dce3b2b1e97bc93c3d18d83efd39060040161574b565b60206040518083038186803b158015612e8b57600080fd5b505afa158015612e9f573d6000803e3d6000fd5b505050506040513d601f19601f82011682018060405250810190612ec391906153e1565b6001600160a01b03908116909152815160cb80549183166001600160a01b031992831617905560209092015160cc805491831691841691909117905560cd805488831690841617905560d38054878316908416179081905560d48054909316331790925563967a760060d255612f3c91600091166146cd565b60d354612f6190600080516020615dc9833981519152906001600160a01b03166146cd565b612f79600080516020615dc9833981519152306146cd565b60d354612fb0907fd10feaa7fea55567e367a112bc53907318a50949442dfc0570945570c5af57cf906001600160a01b03166146cd565b60d354612fe7907f57c4566ed7387d881f62d2e3640ff20a2ddf869c0781ad50ca764bc2c0b88098906001600160a01b03166146cd565b8015612ff9576000805461ff00191690555b5050505050565b613018600080516020615dc983398151915233611f34565b806130295750613029600033611f34565b8061305957506130597fd10feaa7fea55567e367a112bc53907318a50949442dfc0570945570c5af57cf33611f34565b6130755760405162461bcd60e51b8152600401610a39906159c3565b6001600160a01b038316600090815260cf602052604090208054829190849081106130b057634e487b7160e01b600052603260045260246000fd5b906000526020600020906007020160060181905550505050565b60006001600160e01b031982167f7965db0b0000000000000000000000000000000000000000000000000000000014806106455750610645826146d7565b6000611f2d8284615cf5565b3390565b6131228282611f34565b6107ee5761313a816001600160a01b03166014614709565b613145836020614709565b604051602001613156929190615556565b60408051601f198184030181529082905262461bcd60e51b8252610a3991600401615868565b6131868282614900565b60008281526097602052604090206109b7908261491f565b6131a6614efb565b82516001600160a01b0316600090815260cf602052604090205461321657825160ce80546001810182556000919091527fd36cd1c74ef8d7326d8021b776c18fb5a5724b7f7bc93c2f42e43e10ef27d12a0180546001600160a01b0319166001600160a01b039092169190911790555b82516001600160a01b03908116600090815260cf60209081526040808320805460018181018355918552938390208851600790950201805493890151600b0b6bffffffffffffffffffffffff16600160a01b029486166001600160a01b03199094169390931790941692909217815590850151918101805492151560ff199093169290921780835560608601518693909161ff0019166101008360028111156132cf57634e487b7160e01b600052602160045260246000fd5b02179055506080820151600282015560a0820151600382015560c0820151600482015560e082015160058201556101009091015160069091015582516001600160a01b0316600090815260cf602052604081205461332f90600190615cf5565b90507f84bc0c85ecbffe31f755cc0f0a7f275dd330cd94f80379452009b1504cc0390a84600001518286602001518760400151886060015189608001518a60a001518b60c001518c60e001518d61010001516040516133979a99989796959493929190615628565b60405180910390a18280156133af5750836080015142115b156136875760e0840151156134495760cd54845160e086015160405163a9059cbb60e01b81526001600160a01b039093169263a9059cbb926133f592909160040161560f565b602060405180830381600087803b15801561340f57600080fd5b505af1158015613423573d6000803e3d6000fd5b505050506040513d601f19601f820116820180604052508101906134479190615292565b505b83516001600160a01b0316600090815260cf602052604090208054600191908390811061348657634e487b7160e01b600052603260045260246000fd5b60009182526020909120600160079092020101805461ff0019166101008360028111156134c357634e487b7160e01b600052602160045260246000fd5b021790555083516001600160a01b0316600090815260cf6020526040902080548290811061350157634e487b7160e01b600052603260045260246000fd5b9060005260206000209060070201600401546000141561356d5783516001600160a01b0316600090815260cf6020526040902080544291908390811061355757634e487b7160e01b600052603260045260246000fd5b9060005260206000209060070201600401819055505b83516135799082614934565b60ca5460cd548551604051631cd43d1160e31b81526000936001600160a01b039081169363e6a1e888936135b693919092169130916004016157ce565b60806040518083038186803b1580156135ce57600080fd5b505afa1580156135e2573d6000803e3d6000fd5b505050506040513d601f19601f82011682018060405250810190613606919061544d565b505091505084602001518161361b9190615c0d565b85516001600160a01b03908116600090815260d0602090815260409091208054600b9490940b6bffffffffffffffffffffffff166bffffffffffffffffffffffff1990941693909317909255865160cd549288015161368593919291909116906111bc9085615c0d565b505b509192915050565b613697613114565b6001600160a01b0316816001600160a01b0316146136c75760405162461bcd60e51b8152600401610a3990615ba1565b6107ee828261499b565b6000611f2d836001600160a01b038416614a20565b7f65a13978a010015456c629461d1bbe75568f7d539974442890983dbb0203e240828260cf6000866001600160a01b03166001600160a01b03168152602001908152602001600020848154811061374d57634e487b7160e01b600052603260045260246000fd5b600091825260208083206007909202909101546001600160a01b038816835260cf90915260409091208054600160a01b909204600b0b91869081106137a257634e487b7160e01b600052603260045260246000fd5b60009182526020808320600160079093020191909101546001600160a01b038916835260cf9091526040909120805460ff90921691879081106137f557634e487b7160e01b600052603260045260246000fd5b906000526020600020906007020160010160019054906101000a900460ff1660cf6000896001600160a01b03166001600160a01b03168152602001908152602001600020878154811061385857634e487b7160e01b600052603260045260246000fd5b90600052602060002090600702016002015460cf60008a6001600160a01b03166001600160a01b0316815260200190815260200160002088815481106138ae57634e487b7160e01b600052603260045260246000fd5b90600052602060002090600702016003015460cf60008b6001600160a01b03166001600160a01b03168152602001908152602001600020898154811061390457634e487b7160e01b600052603260045260246000fd5b90600052602060002090600702016004015460cf60008c6001600160a01b03166001600160a01b031681526020019081526020016000208a8154811061395a57634e487b7160e01b600052603260045260246000fd5b90600052602060002090600702016005015460cf60008d6001600160a01b03166001600160a01b031681526020019081526020016000208b815481106139b057634e487b7160e01b600052603260045260246000fd5b9060005260206000209060070201600601546040516139d89a99989796959493929190615628565b60405180910390a15050565b600b81900b6139fe576139f984308585614b3d565b6111cf565b6001840154604051631cd43d1160e31b81526000916001600160a01b03169063e6a1e88890613a35908690309089906004016157ce565b60806040518083038186803b158015613a4d57600080fd5b505afa158015613a61573d6000803e3d6000fd5b505050506040513d601f19601f82011682018060405250810190613a85919061544d565b509092505050600b81900b613aa557613aa085858585614c38565b612ff9565b612ff985858585614cb7565b6001600160a01b038116600090815260cf6020908152604080832080548251818502810185019093528083529192909190849084015b82821015613bd657600084815260209081902060408051610120810182526007860290920180546001600160a01b0381168452600160a01b9004600b90810b810b900b93830193909352600183015460ff8082161515928401929092529192916060840191610100909104166002811115613b7257634e487b7160e01b600052602160045260246000fd5b6002811115613b9157634e487b7160e01b600052602160045260246000fd5b81526020016002820154815260200160038201548152602001600482015481526020016005820154815260200160068201548152505081526020019060010190613ae7565b50505050905060008060005b83518110156140b7576000848281518110613c0d57634e487b7160e01b600052603260045260246000fd5b6020026020010151606001516002811115613c3857634e487b7160e01b600052602160045260246000fd5b141561409757838181518110613c5e57634e487b7160e01b600052603260045260246000fd5b602002602001015160800151421115614097576001600160a01b038516600090815260cf60205260409020805482908110613ca957634e487b7160e01b600052603260045260246000fd5b6000918252602090912060079091020154613cce90600160a01b9004600b0b84615c0d565b6001600160a01b038616600090815260cf602052604081208054929550909183908110613d0b57634e487b7160e01b600052603260045260246000fd5b9060005260206000209060070201600501541115613df05760cd546001600160a01b03868116600090815260cf602052604090208054919092169163a9059cbb9188919085908110613d6d57634e487b7160e01b600052603260045260246000fd5b9060005260206000209060070201600501546040518363ffffffff1660e01b8152600401613d9c92919061560f565b602060405180830381600087803b158015613db657600080fd5b505af1158015613dca573d6000803e3d6000fd5b505050506040513d601f19601f82011682018060405250810190613dee9190615292565b505b6001600160a01b038516600090815260cf6020526040902080546001919083908110613e2c57634e487b7160e01b600052603260045260246000fd5b60009182526020909120600160079092020101805461ff001916610100836002811115613e6957634e487b7160e01b600052602160045260246000fd5b02179055506001600160a01b038516600090815260cf60205260409020805482908110613ea657634e487b7160e01b600052603260045260246000fd5b90600052602060002090600702016004015460001415613f11576001600160a01b038516600090815260cf60205260409020805442919083908110613efb57634e487b7160e01b600052603260045260246000fd5b9060005260206000209060070201600401819055505b60d2546001600160a01b038616600090815260cf602052604090208054613fc7919084908110613f5157634e487b7160e01b600052603260045260246000fd5b90600052602060002090600702016003015460cf6000896001600160a01b03166001600160a01b031681526020019081526020016000208481548110613fa757634e487b7160e01b600052603260045260246000fd5b906000526020600020906007020160040154614cfc90919063ffffffff16565b101561407f576001600160a01b038516600090815260cf60205260409020805461406091908390811061400a57634e487b7160e01b600052603260045260246000fd5b90600052602060002090600702016003015460cf6000886001600160a01b03166001600160a01b031681526020019081526020016000208381548110613fa757634e487b7160e01b600052603260045260246000fd5b60d25560d180546001600160a01b0319166001600160a01b0387161790555b6140898582614934565b8161409381615d4f565b9250505b60198211156140a5576140b7565b806140af81615d4f565b915050613be2565b50600082600b0b13156111cf5760ca5460cd54604051631cd43d1160e31b81526000926001600160a01b039081169263e6a1e88892614100929091169030908a906004016157ce565b60806040518083038186803b15801561411857600080fd5b505afa15801561412c573d6000803e3d6000fd5b505050506040513d601f19601f82011682018060405250810190614150919061544d565b505091505082816141619190615c0d565b6001600160a01b03808716600090815260d0602052604090208054600b9390930b6bffffffffffffffffffffffff166bffffffffffffffffffffffff199093169290921790915560cd54612ff9918791166111bc8685615c0d565b60ca5460cd54604051631cd43d1160e31b81526000926001600160a01b039081169263e6a1e888926141f89290911690309088906004016157ce565b60806040518083038186803b15801561421057600080fd5b505afa158015614224573d6000803e3d6000fd5b505050506040513d601f19601f82011682018060405250810190614248919061544d565b505060cd546001600160a01b03808716600090815260cf6020526040902080549395506142bb945087939190921691908690811061429657634e487b7160e01b600052603260045260246000fd5b60009182526020909120600790910201546111bc90600160a01b9004600b0b85615c9c565b6001600160a01b038316600090815260cf602052604090208054839081106142f357634e487b7160e01b600052603260045260246000fd5b600091825260209091206007909102015461431890600160a01b9004600b0b82615c9c565b6001600160a01b038416600090815260d0602090815260408083208054600b9590950b6bffffffffffffffffffffffff166bffffffffffffffffffffffff199095169490941790935560cf9052208054600291908490811061438a57634e487b7160e01b600052603260045260246000fd5b60009182526020909120600160079092020101805461ff0019166101008360028111156143c757634e487b7160e01b600052602160045260246000fd5b02179055506109b783836136e6565b600063967a760081805b60ce5481101561459857600060ce828154811061440d57634e487b7160e01b600052603260045260246000fd5b60009182526020808320909101546001600160a01b031680835260cf8252604080842080548251818602810186019093528083529295509092909190849084015b8282101561453d57600084815260209081902060408051610120810182526007860290920180546001600160a01b0381168452600160a01b9004600b90810b810b900b93830193909352600183015460ff80821615159284019290925291929160608401916101009091041660028111156144d957634e487b7160e01b600052602160045260246000fd5b60028111156144f857634e487b7160e01b600052602160045260246000fd5b8152602001600282015481526020016003820154815260200160048201548152602001600582015481526020016006820154815250508152602001906001019061444e565b50505050905060005b8151811015614582578561455a8483614d08565b10156145705761456a8382614d08565b95508294505b8061457a81615d4f565b915050614546565b505050808061459090615d4f565b9150506143e0565b5060d291909155905090565b6000826145b081614dbb565b6145cc5760405162461bcd60e51b8152600401610a3990615a8e565b6001600160a01b038416600090815260cf6020526040902080548490811061460457634e487b7160e01b600052603260045260246000fd5b600091825260209091206007909102016001015460ff16949350505050565b6000611f2d8383614dd8565b600061064582614e10565b614643826108e9565b61464f8161090c613114565b6109b7838361499b565b600054610100900460ff1680614672575060005460ff16155b61468e5760405162461bcd60e51b8152600401610a3990615a31565b600054610100900460ff161580156146b9576000805460ff1961ff0019909116610100171660011790555b8015611d3e576000805461ff001916905550565b6131868282614e14565b6001600160e01b031981167f01ffc9a70000000000000000000000000000000000000000000000000000000014919050565b60606000614718836002615c7d565b614723906002615c65565b67ffffffffffffffff81111561474957634e487b7160e01b600052604160045260246000fd5b6040519080825280601f01601f191660200182016040528015614773576020820181803683370190505b5090507f3000000000000000000000000000000000000000000000000000000000000000816000815181106147b857634e487b7160e01b600052603260045260246000fd5b60200101906001600160f81b031916908160001a9053507f78000000000000000000000000000000000000000000000000000000000000008160018151811061481157634e487b7160e01b600052603260045260246000fd5b60200101906001600160f81b031916908160001a9053506000614835846002615c7d565b614840906001615c65565b90505b60018111156148e1577f303132333435363738396162636465660000000000000000000000000000000085600f166010811061488f57634e487b7160e01b600052603260045260246000fd5b1a60f81b8282815181106148b357634e487b7160e01b600052603260045260246000fd5b60200101906001600160f81b031916908160001a90535060049490941c936148da81615d38565b9050614843565b508315611f2d5760405162461bcd60e51b8152600401610a399061587b565b614909826108e9565b6149158161090c613114565b6109b78383614e1a565b6000611f2d836001600160a01b038416614ea1565b7f780b252627b33baa50f3438b6311fbc6da0bfc3293632df6e0a47badb8f38528828260cf6000866001600160a01b03166001600160a01b03168152602001908152602001600020848154811061374d57634e487b7160e01b600052603260045260246000fd5b6149a58282611f34565b156107ee5760008281526065602090815260408083206001600160a01b03851684529091529020805460ff191690556149dc613114565b6001600160a01b0316816001600160a01b0316837ff6391f5c32d9c69d2a47ea670b442974b53935d1edc7fd64eb21e047a839171b60405160405180910390a45050565b60008181526001830160205260408120548015614b33576000614a44600183615cf5565b8554909150600090614a5890600190615cf5565b9050818114614ad9576000866000018281548110614a8657634e487b7160e01b600052603260045260246000fd5b9060005260206000200154905080876000018481548110614ab757634e487b7160e01b600052603260045260246000fd5b6000918252602080832090910192909255918252600188019052604090208390555b8554869080614af857634e487b7160e01b600052603160045260246000fd5b600190038181906000526020600020016000905590558560010160008681526020019081526020016000206000905560019350505050610645565b6000915050610645565b835460018501546040805160008152602081019091526001600160a01b03928316926339255d5b9216907fb4b333c60000000000000000000000000000000000000000000000000000000090614b9c90869089908990604481016157f1565b60408051601f198184030181529181526020820180516001600160e01b03166001600160e01b03199485161790525160e085901b9092168252614be29291600401615754565b600060405180830381600087803b158015614bfc57600080fd5b505af1158015614c10573d6000803e3d6000fd5b505050506040513d6000823e601f3d908101601f19168201604052612ff9919081019061533e565b835460018501546001600160a01b03918216916339255d5b91167f62fc305e0000000000000000000000000000000000000000000000000000000085878660005b6040519080825280601f01601f191660200182016040528015614ca3576020820181803683370190505b50604051602401614b9c9493929190615825565b835460018501546001600160a01b03918216916339255d5b91167f50209a62000000000000000000000000000000000000000000000000000000008587866000614c79565b6000611f2d8284615c65565b6001600160a01b038216600090815260cf602052604081208054611f2d919084908110614d4557634e487b7160e01b600052603260045260246000fd5b90600052602060002090600702016003015460cf6000866001600160a01b03166001600160a01b031681526020019081526020016000208481548110614d9b57634e487b7160e01b600052603260045260246000fd5b906000526020600020906007020160020154614cfc90919063ffffffff16565b6001600160a01b0316600090815260cf6020526040902054151590565b6000826000018281548110614dfd57634e487b7160e01b600052603260045260246000fd5b9060005260206000200154905092915050565b5490565b6107ee82825b614e248282611f34565b6107ee5760008281526065602090815260408083206001600160a01b03851684529091529020805460ff19166001179055614e5d613114565b6001600160a01b0316816001600160a01b0316837f2f8788117e7eff1d82e926ec794901d17c78024a50270940304540a733656f0d60405160405180910390a45050565b6000614ead8383614ee3565b6108e057508154600181810184556000848152602080822090930184905584548482528286019093526040902091909155610645565b60009081526001919091016020526040902054151590565b6040805161012081018252600080825260208201819052918101829052906060820190815260200160008152602001600081526020016000815260200160008152602001600080191681525090565b60008083601f840112614f5b578081fd5b50813567ffffffffffffffff811115614f72578182fd5b6020830191508360208083028501011115614f8c57600080fd5b9250929050565b600060208284031215614fa4578081fd5b8135611f2d81615d96565b60008060008060808587031215614fc4578283fd5b8435614fcf81615d96565b93506020850135614fdf81615d96565b92506040850135614fef81615d96565b91506060850135614fff81615d96565b939692955090935050565b60008060006060848603121561501e578283fd5b833561502981615d96565b9250602084013561503981615d96565b929592945050506040919091013590565b600080600080600080600060e0888a031215615064578283fd5b873561506f81615d96565b9650602088013561507f81615db9565b9550604088013561508f81615dab565b969995985095966060810135965060808101359560a0820135955060c0909101359350915050565b600080604083850312156150c9578182fd5b82356150d481615d96565b946020939093013593505050565b6000806000606084860312156150f6578283fd5b833561510181615d96565b95602085013595506040909401359392505050565b60008060208385031215615128578182fd5b823567ffffffffffffffff81111561513e578283fd5b61514a85828601614f4a565b90969095509350505050565b60008060008060008060008060008060008060c08d8f031215615177578586fd5b67ffffffffffffffff8d35111561518c578586fd5b6151998e8e358f01614f4a565b909c509a5067ffffffffffffffff60208e013511156151b6578586fd5b6151c68e60208f01358f01614f4a565b909a50985067ffffffffffffffff60408e013511156151e3578586fd5b6151f38e60408f01358f01614f4a565b909850965067ffffffffffffffff60608e01351115615210578586fd5b6152208e60608f01358f01614f4a565b909650945067ffffffffffffffff60808e0135111561523d578384fd5b61524d8e60808f01358f01614f4a565b909450925067ffffffffffffffff60a08e0135111561526a578081fd5b61527a8e60a08f01358f01614f4a565b81935080925050509295989b509295989b509295989b565b6000602082840312156152a3578081fd5b8151611f2d81615dab565b6000602082840312156152bf578081fd5b5035919050565b600080604083850312156152d8578182fd5b8235915060208301356152ea81615d96565b809150509250929050565b60008060408385031215615307578182fd5b50508035926020909101359150565b600060208284031215615327578081fd5b81356001600160e01b031981168114611f2d578182fd5b60006020828403121561534f578081fd5b815167ffffffffffffffff80821115615366578283fd5b818401915084601f830112615379578283fd5b81518181111561538b5761538b615d80565b604051601f8201601f1916810160200183811182821017156153af576153af615d80565b6040528181528382016020018710156153c6578485fd5b6153d7826020830160208701615d0c565b9695505050505050565b6000602082840312156153f2578081fd5b8151611f2d81615d96565b60006020828403121561540e578081fd5b8135611f2d81615db9565b60006020828403121561542a578081fd5b8151611f2d81615db9565b600060208284031215615446578081fd5b5051919050565b60008060008060808587031215615462578182fd5b84519350602085015161547481615db9565b6040860151606090960151949790965092505050565b15159052565b600081518084526154a8816020860160208601615d0c565b601f01601f19169290920160200192915050565b600381106154da57634e487b7160e01b600052602160045260246000fd5b9052565b6001600160a01b0381511682526020810151600b0b6020830152604081015161550a604084018261548a565b50606081015161551d60608401826154bc565b506080810151608083015260a081015160a083015260c081015160c083015260e081015160e08301526101008082015181840152505050565b60007f416363657373436f6e74726f6c3a206163636f756e74200000000000000000008252835161558e816017850160208801615d0c565b7f206973206d697373696e6720726f6c652000000000000000000000000000000060179184019182015283516155cb816028840160208801615d0c565b01602801949350505050565b6001600160a01b0391909116815260200190565b6001600160a01b039384168152919092166020820152604081019190915260600190565b6001600160a01b03929092168252602082015260400190565b6001600160a01b038b168152602081018a9052600b89900b60408201528715156060820152610140810161565f60808301896154bc565b60a082019690965260c081019490945260e08401929092526101008301526101209091015295945050505050565b6020808252825182820181905260009190848201906040850190845b818110156156ce5783516001600160a01b0316835292840192918401916001016156a9565b50909695505050505050565b6020808252825182820181905260009190848201906040850190845b818110156156ce576157098385516154de565b9284019261012092909201916001016156f6565b901515815260200190565b60008315158252604060208301526157436040830184615490565b949350505050565b90815260200190565b60006001600160a01b0384168252606060208301526157766060830184615490565b828103604093840152600281527f30780000000000000000000000000000000000000000000000000000000000006020820152919091019392505050565b6001600160a01b0392831681529116602082015260400190565b6001600160a01b0393841681529183166020830152909116604082015260600190565b60006001600160a01b0380871683528086166020840152808516604084015250608060608301526153d76080830184615490565b60006001600160a01b03808716835280861660208401525083600b0b6040830152608060608301526153d76080830184615490565b600b9190910b815260200190565b600060208252611f2d6020830184615490565b6020808252818101527f537472696e67733a20686578206c656e67746820696e73756666696369656e74604082015260600190565b60208082526009908201527f7065726d616e656e740000000000000000000000000000000000000000000000604082015260600190565b60208082526004908201527f3c3d203000000000000000000000000000000000000000000000000000000000604082015260600190565b60208082526008908201527f696e616374697665000000000000000000000000000000000000000000000000604082015260600190565b60208082526008908201527f214d616e61676572000000000000000000000000000000000000000000000000604082015260600190565b60208082526005908201527f216e657874000000000000000000000000000000000000000000000000000000604082015260600190565b60208082526009908201527f213e4772616e746f720000000000000000000000000000000000000000000000604082015260600190565b60208082526003908201527f2130780000000000000000000000000000000000000000000000000000000000604082015260600190565b6020808252602e908201527f496e697469616c697a61626c653a20636f6e747261637420697320616c72656160408201527f647920696e697469616c697a6564000000000000000000000000000000000000606082015260800190565b60208082526004908201527f2172656700000000000000000000000000000000000000000000000000000000604082015260600190565b60208082526006908201527f6661696c65640000000000000000000000000000000000000000000000000000604082015260600190565b60208082526004908201527f3e62616c00000000000000000000000000000000000000000000000000000000604082015260600190565b60208082526008908201527f213e436c6f736572000000000000000000000000000000000000000000000000604082015260600190565b6020808252600a908201527f213e4c61756e6368657200000000000000000000000000000000000000000000604082015260600190565b6020808252602f908201527f416363657373436f6e74726f6c3a2063616e206f6e6c792072656e6f756e636560408201527f20726f6c657320666f722073656c660000000000000000000000000000000000606082015260800190565b610120810161064582846154de565b600081600b0b83600b0b828212826b7fffffffffffffffffffffff03821381151615615c3b57615c3b615d6a565b826b7fffffffffffffffffffffff19038212811615615c5c57615c5c615d6a565b50019392505050565b60008219821115615c7857615c78615d6a565b500190565b6000816000190483118215151615615c9757615c97615d6a565b500290565b600081600b0b83600b0b828112816b7fffffffffffffffffffffff1901831281151615615ccb57615ccb615d6a565b816b7fffffffffffffffffffffff018313811615615ceb57615ceb615d6a565b5090039392505050565b600082821015615d0757615d07615d6a565b500390565b60005b83811015615d27578181015183820152602001615d0f565b838111156111cf5750506000910152565b600081615d4757615d47615d6a565b506000190190565b6000600019821415615d6357615d63615d6a565b5060010190565b634e487b7160e01b600052601160045260246000fd5b634e487b7160e01b600052604160045260246000fd5b6001600160a01b0381168114611d3e57600080fd5b8015158114611d3e57600080fd5b80600b0b8114611d3e57600080fdfe241ecf16d79d0f8dbfb92cbc07fe17840425976cf0667f022fe9877caa831b08a2646970667358221220df17c7548419022599992c4cf77b0b4f511864c5b9dd2795367ef4f954b4caf064736f6c63430008000033",
  "linkReferences": {},
  "deployedLinkReferences": {}
}